{
  "_format": "hh-sol-artifact-1",
  "contractName": "ICOFactory",
  "sourceName": "contracts/ICOFactory.sol",
  "abi": [
    {
      "inputs": [
        {
          "internalType": "uint256",
          "name": "tokenAmount",
          "type": "uint256"
        }
      ],
      "name": "createIco",
      "outputs": [],
      "stateMutability": "nonpayable",
      "type": "function"
    },
    {
      "inputs": [
        {
          "internalType": "uint256",
          "name": "",
          "type": "uint256"
        }
      ],
      "name": "deployedICO",
      "outputs": [
        {
          "internalType": "address",
          "name": "",
          "type": "address"
        }
      ],
      "stateMutability": "view",
      "type": "function"
    },
    {
      "inputs": [],
      "name": "getDeployedCampaigns",
      "outputs": [
        {
          "internalType": "address[]",
          "name": "",
          "type": "address[]"
        }
      ],
      "stateMutability": "view",
      "type": "function"
    }
  ],
  "bytecode": "0x608060405234801561001057600080fd5b50613155806100206000396000f3fe60806040523480156200001157600080fd5b5060043610620000465760003560e01c80634acb9d4f146200004b57806384c83d96146200006d578063ebfb651e146200008d575b600080fd5b62000055620000c3565b6040516200006491906200035c565b60405180910390f35b6200008b60048036038101906200008591906200025c565b62000153565b005b620000ab6004803603810190620000a591906200025c565b620001f7565b604051620000ba91906200033f565b60405180910390f35b606060008054806020026020016040519081016040528092919081815260200182805480156200014957602002820191906000526020600020905b8160009054906101000a900473ffffffffffffffffffffffffffffffffffffffff1673ffffffffffffffffffffffffffffffffffffffff1681526020019060010190808311620000fe575b5050505050905090565b600081604051620001649062000237565b62000170919062000380565b604051809103906000f0801580156200018d573d6000803e3d6000fd5b5090506000819080600181540180825580915050600190039060005260206000200160009091909190916101000a81548173ffffffffffffffffffffffffffffffffffffffff021916908373ffffffffffffffffffffffffffffffffffffffff1602179055505050565b600081815481106200020857600080fd5b906000526020600020016000915054906101000a900473ffffffffffffffffffffffffffffffffffffffff1681565b612cf1806200042f83390190565b600081359050620002568162000414565b92915050565b6000602082840312156200026f57600080fd5b60006200027f8482850162000245565b91505092915050565b6000620002968383620002a2565b60208301905092915050565b620002ad81620003d6565b82525050565b620002be81620003d6565b82525050565b6000620002d182620003ad565b620002dd8185620003c5565b9350620002ea836200039d565b8060005b838110156200032157815162000305888262000288565b97506200031283620003b8565b925050600181019050620002ee565b5085935050505092915050565b62000339816200040a565b82525050565b6000602082019050620003566000830184620002b3565b92915050565b60006020820190508181036000830152620003788184620002c4565b905092915050565b60006020820190506200039760008301846200032e565b92915050565b6000819050602082019050919050565b600081519050919050565b6000602082019050919050565b600082825260208201905092915050565b6000620003e382620003ea565b9050919050565b600073ffffffffffffffffffffffffffffffffffffffff82169050919050565b6000819050919050565b6200041f816200040a565b81146200042b57600080fd5b5056fe60806040523480156200001157600080fd5b5060405162002cf138038062002cf1833981810160405281019062000037919062000475565b6040518060400160405280600881526020017f49434f546f6b656e0000000000000000000000000000000000000000000000008152506040518060400160405280600381526020017f49434f00000000000000000000000000000000000000000000000000000000008152508160039080519060200190620000bb929190620003ae565b508060049080519060200190620000d4929190620003ae565b505050620000f7620000eb6200015460201b60201c565b6200015c60201b60201c565b60016006819055506200014d620001136200015460201b60201c565b620001236200022260201b60201c565b60ff16600a620001349190620005e1565b836200014191906200071e565b6200022b60201b60201c565b506200086d565b600033905090565b6000600560009054906101000a900473ffffffffffffffffffffffffffffffffffffffff16905081600560006101000a81548173ffffffffffffffffffffffffffffffffffffffff021916908373ffffffffffffffffffffffffffffffffffffffff1602179055508173ffffffffffffffffffffffffffffffffffffffff168173ffffffffffffffffffffffffffffffffffffffff167f8be0079c531659141344cd1fd0a4f28419497f9722a3daafe3b4186f6b6457e060405160405180910390a35050565b60006012905090565b600073ffffffffffffffffffffffffffffffffffffffff168273ffffffffffffffffffffffffffffffffffffffff1614156200029e576040517f08c379a00000000000000000000000000000000000000000000000000000000081526004016200029590620004d9565b60405180910390fd5b620002b260008383620003a460201b60201c565b8060026000828254620002c6919062000529565b92505081905550806000808473ffffffffffffffffffffffffffffffffffffffff1673ffffffffffffffffffffffffffffffffffffffff16815260200190815260200160002060008282546200031d919062000529565b925050819055508173ffffffffffffffffffffffffffffffffffffffff16600073ffffffffffffffffffffffffffffffffffffffff167fddf252ad1be2c89b69c2b068fc378daa952ba7f163c4a11628f55a4df523b3ef83604051620003849190620004fb565b60405180910390a3620003a060008383620003a960201b60201c565b5050565b505050565b505050565b828054620003bc9062000789565b90600052602060002090601f016020900481019282620003e057600085556200042c565b82601f10620003fb57805160ff19168380011785556200042c565b828001600101855582156200042c579182015b828111156200042b5782518255916020019190600101906200040e565b5b5090506200043b91906200043f565b5090565b5b808211156200045a57600081600090555060010162000440565b5090565b6000815190506200046f8162000853565b92915050565b6000602082840312156200048857600080fd5b600062000498848285016200045e565b91505092915050565b6000620004b0601f8362000518565b9150620004bd826200082a565b602082019050919050565b620004d3816200077f565b82525050565b60006020820190508181036000830152620004f481620004a1565b9050919050565b6000602082019050620005126000830184620004c8565b92915050565b600082825260208201905092915050565b600062000536826200077f565b915062000543836200077f565b9250827fffffffffffffffffffffffffffffffffffffffffffffffffffffffffffffffff038211156200057b576200057a620007bf565b5b828201905092915050565b6000808291508390505b6001851115620005d857808604811115620005b057620005af620007bf565b5b6001851615620005c05780820291505b8081029050620005d0856200081d565b945062000590565b94509492505050565b6000620005ee826200077f565b9150620005fb836200077f565b92506200062a7fffffffffffffffffffffffffffffffffffffffffffffffffffffffffffffffff848462000632565b905092915050565b60008262000644576001905062000717565b8162000654576000905062000717565b81600181146200066d57600281146200067857620006ae565b600191505062000717565b60ff8411156200068d576200068c620007bf565b5b8360020a915084821115620006a757620006a6620007bf565b5b5062000717565b5060208310610133831016604e8410600b8410161715620006e85782820a905083811115620006e257620006e1620007bf565b5b62000717565b620006f7848484600162000586565b92509050818404811115620007115762000710620007bf565b5b81810290505b9392505050565b60006200072b826200077f565b915062000738836200077f565b9250817fffffffffffffffffffffffffffffffffffffffffffffffffffffffffffffffff0483118215151615620007745762000773620007bf565b5b828202905092915050565b6000819050919050565b60006002820490506001821680620007a257607f821691505b60208210811415620007b957620007b8620007ee565b5b50919050565b7f4e487b7100000000000000000000000000000000000000000000000000000000600052601160045260246000fd5b7f4e487b7100000000000000000000000000000000000000000000000000000000600052602260045260246000fd5b60008160011c9050919050565b7f45524332303a206d696e7420746f20746865207a65726f206164647265737300600082015250565b6200085e816200077f565b81146200086a57600080fd5b50565b612474806200087d6000396000f3fe6080604052600436106101095760003560e01c8063715018a611610095578063a457c2d711610064578063a457c2d7146103a7578063a6f2ae3a146103e4578063a9059cbb14610402578063dd62ed3e1461043f578063f2fde38b1461047c57610109565b8063715018a6146102fd5780638da5cb5b1461031457806395d89b411461033f5780639dc29fac1461036a57610109565b80632e1a7d4d116100dc5780632e1a7d4d146101de578063313ce5671461021b578063395093511461024657806340c10f191461028357806370a08231146102c057610109565b806306fdde031461010e578063095ea7b31461013957806318160ddd1461017657806323b872dd146101a1575b600080fd5b34801561011a57600080fd5b506101236104a5565b6040516101309190611ac8565b60405180910390f35b34801561014557600080fd5b50610160600480360381019061015b9190611765565b610537565b60405161016d9190611aad565b60405180910390f35b34801561018257600080fd5b5061018b61055a565b6040516101989190611d0a565b60405180910390f35b3480156101ad57600080fd5b506101c860048036038101906101c39190611716565b610564565b6040516101d59190611aad565b60405180910390f35b3480156101ea57600080fd5b50610205600480360381019061020091906117a1565b610593565b6040516102129190611aad565b60405180910390f35b34801561022757600080fd5b506102306106ab565b60405161023d9190611d25565b60405180910390f35b34801561025257600080fd5b5061026d60048036038101906102689190611765565b6106b4565b60405161027a9190611aad565b60405180910390f35b34801561028f57600080fd5b506102aa60048036038101906102a59190611765565b6106eb565b6040516102b79190611aad565b60405180910390f35b3480156102cc57600080fd5b506102e760048036038101906102e291906116b1565b6107fa565b6040516102f49190611d0a565b60405180910390f35b34801561030957600080fd5b50610312610842565b005b34801561032057600080fd5b506103296108ca565b6040516103369190611a92565b60405180910390f35b34801561034b57600080fd5b506103546108f4565b6040516103619190611ac8565b60405180910390f35b34801561037657600080fd5b50610391600480360381019061038c9190611765565b610986565b60405161039e9190611aad565b60405180910390f35b3480156103b357600080fd5b506103ce60048036038101906103c99190611765565b610a95565b6040516103db9190611aad565b60405180910390f35b6103ec610b0c565b6040516103f99190611aad565b60405180910390f35b34801561040e57600080fd5b5061042960048036038101906104249190611765565b610bfe565b6040516104369190611aad565b60405180910390f35b34801561044b57600080fd5b50610466600480360381019061046191906116da565b610c21565b6040516104739190611d0a565b60405180910390f35b34801561048857600080fd5b506104a3600480360381019061049e91906116b1565b610ca8565b005b6060600380546104b490611ec8565b80601f01602080910402602001604051908101604052809291908181526020018280546104e090611ec8565b801561052d5780601f106105025761010080835404028352916020019161052d565b820191906000526020600020905b81548152906001019060200180831161051057829003601f168201915b5050505050905090565b600080610542610da0565b905061054f818585610da8565b600191505092915050565b6000600254905090565b60008061056f610da0565b905061057c858285610f73565b610587858585610fff565b60019150509392505050565b600061059d610da0565b73ffffffffffffffffffffffffffffffffffffffff166105bb6108ca565b73ffffffffffffffffffffffffffffffffffffffff1614610611576040517f08c379a000000000000000000000000000000000000000000000000000000000815260040161060890611bca565b60405180910390fd5b47821115610654576040517f08c379a000000000000000000000000000000000000000000000000000000000815260040161064b90611c8a565b60405180910390fd5b61065c610da0565b73ffffffffffffffffffffffffffffffffffffffff166108fc839081150290604051600060405180830381858888f193505050501580156106a1573d6000803e3d6000fd5b5060019050919050565b60006012905090565b6000806106bf610da0565b90506106e08185856106d18589610c21565b6106db9190611d5c565b610da8565b600191505092915050565b60006106f5610da0565b73ffffffffffffffffffffffffffffffffffffffff166107136108ca565b73ffffffffffffffffffffffffffffffffffffffff1614610769576040517f08c379a000000000000000000000000000000000000000000000000000000000815260040161076090611bca565b60405180910390fd5b600073ffffffffffffffffffffffffffffffffffffffff168373ffffffffffffffffffffffffffffffffffffffff16141580156107a7575060008214155b6107e6576040517f08c379a00000000000000000000000000000000000000000000000000000000081526004016107dd90611b2a565b60405180910390fd5b6107f08383611280565b6001905092915050565b60008060008373ffffffffffffffffffffffffffffffffffffffff1673ffffffffffffffffffffffffffffffffffffffff168152602001908152602001600020549050919050565b61084a610da0565b73ffffffffffffffffffffffffffffffffffffffff166108686108ca565b73ffffffffffffffffffffffffffffffffffffffff16146108be576040517f08c379a00000000000000000000000000000000000000000000000000000000081526004016108b590611bca565b60405180910390fd5b6108c860006113e0565b565b6000600560009054906101000a900473ffffffffffffffffffffffffffffffffffffffff16905090565b60606004805461090390611ec8565b80601f016020809104026020016040519081016040528092919081815260200182805461092f90611ec8565b801561097c5780601f106109515761010080835404028352916020019161097c565b820191906000526020600020905b81548152906001019060200180831161095f57829003601f168201915b5050505050905090565b6000610990610da0565b73ffffffffffffffffffffffffffffffffffffffff166109ae6108ca565b73ffffffffffffffffffffffffffffffffffffffff1614610a04576040517f08c379a00000000000000000000000000000000000000000000000000000000081526004016109fb90611bca565b60405180910390fd5b600073ffffffffffffffffffffffffffffffffffffffff168373ffffffffffffffffffffffffffffffffffffffff1614158015610a42575060008214155b610a81576040517f08c379a0000000000000000000000000000000000000000000000000000000008152600401610a7890611c2a565b60405180910390fd5b610a8b83836114a6565b6001905092915050565b600080610aa0610da0565b90506000610aae8286610c21565b905083811015610af3576040517f08c379a0000000000000000000000000000000000000000000000000000000008152600401610aea90611cca565b60405180910390fd5b610b008286868403610da8565b60019250505092915050565b600060026006541415610b54576040517f08c379a0000000000000000000000000000000000000000000000000000000008152600401610b4b90611caa565b60405180910390fd5b6002600681905550343373ffffffffffffffffffffffffffffffffffffffff163110158015610b84575060003414155b610bc3576040517f08c379a0000000000000000000000000000000000000000000000000000000008152600401610bba90611bea565b60405180910390fd5b60006103e834610bd39190611db2565b9050610bee610be06108ca565b610be8610da0565b83610fff565b6001915050600160068190555090565b600080610c09610da0565b9050610c16818585610fff565b600191505092915050565b6000600160008473ffffffffffffffffffffffffffffffffffffffff1673ffffffffffffffffffffffffffffffffffffffff16815260200190815260200160002060008373ffffffffffffffffffffffffffffffffffffffff1673ffffffffffffffffffffffffffffffffffffffff16815260200190815260200160002054905092915050565b610cb0610da0565b73ffffffffffffffffffffffffffffffffffffffff16610cce6108ca565b73ffffffffffffffffffffffffffffffffffffffff1614610d24576040517f08c379a0000000000000000000000000000000000000000000000000000000008152600401610d1b90611bca565b60405180910390fd5b600073ffffffffffffffffffffffffffffffffffffffff168173ffffffffffffffffffffffffffffffffffffffff161415610d94576040517f08c379a0000000000000000000000000000000000000000000000000000000008152600401610d8b90611b4a565b60405180910390fd5b610d9d816113e0565b50565b600033905090565b600073ffffffffffffffffffffffffffffffffffffffff168373ffffffffffffffffffffffffffffffffffffffff161415610e18576040517f08c379a0000000000000000000000000000000000000000000000000000000008152600401610e0f90611c6a565b60405180910390fd5b600073ffffffffffffffffffffffffffffffffffffffff168273ffffffffffffffffffffffffffffffffffffffff161415610e88576040517f08c379a0000000000000000000000000000000000000000000000000000000008152600401610e7f90611b6a565b60405180910390fd5b80600160008573ffffffffffffffffffffffffffffffffffffffff1673ffffffffffffffffffffffffffffffffffffffff16815260200190815260200160002060008473ffffffffffffffffffffffffffffffffffffffff1673ffffffffffffffffffffffffffffffffffffffff168152602001908152602001600020819055508173ffffffffffffffffffffffffffffffffffffffff168373ffffffffffffffffffffffffffffffffffffffff167f8c5be1e5ebec7d5bd14f71427d1e84f3dd0314c0f7b2291e5b200ac8c7c3b92583604051610f669190611d0a565b60405180910390a3505050565b6000610f7f8484610c21565b90507fffffffffffffffffffffffffffffffffffffffffffffffffffffffffffffffff8114610ff95781811015610feb576040517f08c379a0000000000000000000000000000000000000000000000000000000008152600401610fe290611b8a565b60405180910390fd5b610ff88484848403610da8565b5b50505050565b600073ffffffffffffffffffffffffffffffffffffffff168373ffffffffffffffffffffffffffffffffffffffff16141561106f576040517f08c379a000000000000000000000000000000000000000000000000000000000815260040161106690611c4a565b60405180910390fd5b600073ffffffffffffffffffffffffffffffffffffffff168273ffffffffffffffffffffffffffffffffffffffff1614156110df576040517f08c379a00000000000000000000000000000000000000000000000000000000081526004016110d690611aea565b60405180910390fd5b6110ea83838361167d565b60008060008573ffffffffffffffffffffffffffffffffffffffff1673ffffffffffffffffffffffffffffffffffffffff16815260200190815260200160002054905081811015611170576040517f08c379a000000000000000000000000000000000000000000000000000000000815260040161116790611baa565b60405180910390fd5b8181036000808673ffffffffffffffffffffffffffffffffffffffff1673ffffffffffffffffffffffffffffffffffffffff16815260200190815260200160002081905550816000808573ffffffffffffffffffffffffffffffffffffffff1673ffffffffffffffffffffffffffffffffffffffff16815260200190815260200160002060008282546112039190611d5c565b925050819055508273ffffffffffffffffffffffffffffffffffffffff168473ffffffffffffffffffffffffffffffffffffffff167fddf252ad1be2c89b69c2b068fc378daa952ba7f163c4a11628f55a4df523b3ef846040516112679190611d0a565b60405180910390a361127a848484611682565b50505050565b600073ffffffffffffffffffffffffffffffffffffffff168273ffffffffffffffffffffffffffffffffffffffff1614156112f0576040517f08c379a00000000000000000000000000000000000000000000000000000000081526004016112e790611cea565b60405180910390fd5b6112fc6000838361167d565b806002600082825461130e9190611d5c565b92505081905550806000808473ffffffffffffffffffffffffffffffffffffffff1673ffffffffffffffffffffffffffffffffffffffff16815260200190815260200160002060008282546113639190611d5c565b925050819055508173ffffffffffffffffffffffffffffffffffffffff16600073ffffffffffffffffffffffffffffffffffffffff167fddf252ad1be2c89b69c2b068fc378daa952ba7f163c4a11628f55a4df523b3ef836040516113c89190611d0a565b60405180910390a36113dc60008383611682565b5050565b6000600560009054906101000a900473ffffffffffffffffffffffffffffffffffffffff16905081600560006101000a81548173ffffffffffffffffffffffffffffffffffffffff021916908373ffffffffffffffffffffffffffffffffffffffff1602179055508173ffffffffffffffffffffffffffffffffffffffff168173ffffffffffffffffffffffffffffffffffffffff167f8be0079c531659141344cd1fd0a4f28419497f9722a3daafe3b4186f6b6457e060405160405180910390a35050565b600073ffffffffffffffffffffffffffffffffffffffff168273ffffffffffffffffffffffffffffffffffffffff161415611516576040517f08c379a000000000000000000000000000000000000000000000000000000000815260040161150d90611c0a565b60405180910390fd5b6115228260008361167d565b60008060008473ffffffffffffffffffffffffffffffffffffffff1673ffffffffffffffffffffffffffffffffffffffff168152602001908152602001600020549050818110156115a8576040517f08c379a000000000000000000000000000000000000000000000000000000000815260040161159f90611b0a565b60405180910390fd5b8181036000808573ffffffffffffffffffffffffffffffffffffffff1673ffffffffffffffffffffffffffffffffffffffff1681526020019081526020016000208190555081600260008282546115ff9190611e0c565b92505081905550600073ffffffffffffffffffffffffffffffffffffffff168373ffffffffffffffffffffffffffffffffffffffff167fddf252ad1be2c89b69c2b068fc378daa952ba7f163c4a11628f55a4df523b3ef846040516116649190611d0a565b60405180910390a361167883600084611682565b505050565b505050565b505050565b60008135905061169681612410565b92915050565b6000813590506116ab81612427565b92915050565b6000602082840312156116c357600080fd5b60006116d184828501611687565b91505092915050565b600080604083850312156116ed57600080fd5b60006116fb85828601611687565b925050602061170c85828601611687565b9150509250929050565b60008060006060848603121561172b57600080fd5b600061173986828701611687565b935050602061174a86828701611687565b925050604061175b8682870161169c565b9150509250925092565b6000806040838503121561177857600080fd5b600061178685828601611687565b92505060206117978582860161169c565b9150509250929050565b6000602082840312156117b357600080fd5b60006117c18482850161169c565b91505092915050565b6117d381611e40565b82525050565b6117e281611e52565b82525050565b60006117f382611d40565b6117fd8185611d4b565b935061180d818560208601611e95565b61181681611f58565b840191505092915050565b600061182e602383611d4b565b915061183982611f69565b604082019050919050565b6000611851602283611d4b565b915061185c82611fb8565b604082019050919050565b6000611874602883611d4b565b915061187f82612007565b604082019050919050565b6000611897602683611d4b565b91506118a282612056565b604082019050919050565b60006118ba602283611d4b565b91506118c5826120a5565b604082019050919050565b60006118dd601d83611d4b565b91506118e8826120f4565b602082019050919050565b6000611900602683611d4b565b915061190b8261211d565b604082019050919050565b6000611923602083611d4b565b915061192e8261216c565b602082019050919050565b6000611946602783611d4b565b915061195182612195565b604082019050919050565b6000611969602183611d4b565b9150611974826121e4565b604082019050919050565b600061198c602883611d4b565b915061199782612233565b604082019050919050565b60006119af602583611d4b565b91506119ba82612282565b604082019050919050565b60006119d2602483611d4b565b91506119dd826122d1565b604082019050919050565b60006119f5602c83611d4b565b9150611a0082612320565b604082019050919050565b6000611a18601f83611d4b565b9150611a238261236f565b602082019050919050565b6000611a3b602583611d4b565b9150611a4682612398565b604082019050919050565b6000611a5e601f83611d4b565b9150611a69826123e7565b602082019050919050565b611a7d81611e7e565b82525050565b611a8c81611e88565b82525050565b6000602082019050611aa760008301846117ca565b92915050565b6000602082019050611ac260008301846117d9565b92915050565b60006020820190508181036000830152611ae281846117e8565b905092915050565b60006020820190508181036000830152611b0381611821565b9050919050565b60006020820190508181036000830152611b2381611844565b9050919050565b60006020820190508181036000830152611b4381611867565b9050919050565b60006020820190508181036000830152611b638161188a565b9050919050565b60006020820190508181036000830152611b83816118ad565b9050919050565b60006020820190508181036000830152611ba3816118d0565b9050919050565b60006020820190508181036000830152611bc3816118f3565b9050919050565b60006020820190508181036000830152611be381611916565b9050919050565b60006020820190508181036000830152611c0381611939565b9050919050565b60006020820190508181036000830152611c238161195c565b9050919050565b60006020820190508181036000830152611c438161197f565b9050919050565b60006020820190508181036000830152611c63816119a2565b9050919050565b60006020820190508181036000830152611c83816119c5565b9050919050565b60006020820190508181036000830152611ca3816119e8565b9050919050565b60006020820190508181036000830152611cc381611a0b565b9050919050565b60006020820190508181036000830152611ce381611a2e565b9050919050565b60006020820190508181036000830152611d0381611a51565b9050919050565b6000602082019050611d1f6000830184611a74565b92915050565b6000602082019050611d3a6000830184611a83565b92915050565b600081519050919050565b600082825260208201905092915050565b6000611d6782611e7e565b9150611d7283611e7e565b9250827fffffffffffffffffffffffffffffffffffffffffffffffffffffffffffffffff03821115611da757611da6611efa565b5b828201905092915050565b6000611dbd82611e7e565b9150611dc883611e7e565b9250817fffffffffffffffffffffffffffffffffffffffffffffffffffffffffffffffff0483118215151615611e0157611e00611efa565b5b828202905092915050565b6000611e1782611e7e565b9150611e2283611e7e565b925082821015611e3557611e34611efa565b5b828203905092915050565b6000611e4b82611e5e565b9050919050565b60008115159050919050565b600073ffffffffffffffffffffffffffffffffffffffff82169050919050565b6000819050919050565b600060ff82169050919050565b60005b83811015611eb3578082015181840152602081019050611e98565b83811115611ec2576000848401525b50505050565b60006002820490506001821680611ee057607f821691505b60208210811415611ef457611ef3611f29565b5b50919050565b7f4e487b7100000000000000000000000000000000000000000000000000000000600052601160045260246000fd5b7f4e487b7100000000000000000000000000000000000000000000000000000000600052602260045260246000fd5b6000601f19601f8301169050919050565b7f45524332303a207472616e7366657220746f20746865207a65726f206164647260008201527f6573730000000000000000000000000000000000000000000000000000000000602082015250565b7f45524332303a206275726e20616d6f756e7420657863656564732062616c616e60008201527f6365000000000000000000000000000000000000000000000000000000000000602082015250565b7f4b696e67646f6d53616c653a2066756e6374696f6e206d696e7420696e76616c60008201527f696420696e707574000000000000000000000000000000000000000000000000602082015250565b7f4f776e61626c653a206e6577206f776e657220697320746865207a65726f206160008201527f6464726573730000000000000000000000000000000000000000000000000000602082015250565b7f45524332303a20617070726f766520746f20746865207a65726f20616464726560008201527f7373000000000000000000000000000000000000000000000000000000000000602082015250565b7f45524332303a20696e73756666696369656e7420616c6c6f77616e6365000000600082015250565b7f45524332303a207472616e7366657220616d6f756e742065786365656473206260008201527f616c616e63650000000000000000000000000000000000000000000000000000602082015250565b7f4f776e61626c653a2063616c6c6572206973206e6f7420746865206f776e6572600082015250565b7f4b696e67646f6d53616c653a2066756e6374696f6e2062757920696e76616c6960008201527f6420696e70757400000000000000000000000000000000000000000000000000602082015250565b7f45524332303a206275726e2066726f6d20746865207a65726f2061646472657360008201527f7300000000000000000000000000000000000000000000000000000000000000602082015250565b7f4b696e67646f6d53616c653a2066756e6374696f6e206275726e20696e76616c60008201527f696420696e707574000000000000000000000000000000000000000000000000602082015250565b7f45524332303a207472616e736665722066726f6d20746865207a65726f20616460008201527f6472657373000000000000000000000000000000000000000000000000000000602082015250565b7f45524332303a20617070726f76652066726f6d20746865207a65726f2061646460008201527f7265737300000000000000000000000000000000000000000000000000000000602082015250565b7f4b696e67646f6d53616c653a2066756e6374696f6e207769746864726177206960008201527f6e76616c696420696e7075740000000000000000000000000000000000000000602082015250565b7f5265656e7472616e637947756172643a207265656e7472616e742063616c6c00600082015250565b7f45524332303a2064656372656173656420616c6c6f77616e63652062656c6f7760008201527f207a65726f000000000000000000000000000000000000000000000000000000602082015250565b7f45524332303a206d696e7420746f20746865207a65726f206164647265737300600082015250565b61241981611e40565b811461242457600080fd5b50565b61243081611e7e565b811461243b57600080fd5b5056fea2646970667358221220f2e58063b204a6df0fe1b6456d88af5c8a6eb4ba0334abc2f49271815143129f64736f6c63430008040033a264697066735822122041a9713f3e3e5304fce462fed2b808b24df55c72e7e88bf9271ae8457636ae3964736f6c63430008040033",
  "linkReferences": {},
  "deployedLinkReferences": {}
}